:020000040800F2
:10000000A8A400209D010008B1480008CD390008CF
:10001000AD480008390C0008116D00080000000010
:100020000000000000000000000000005156000821
:10003000D90D000800000000E1490008256500080E
:10004000B7010008B7010008B7010008B7010008B0
:10005000B7010008B7010008B7010008B7010008A0
:10006000B7010008B7010008B7010008B701000890
:10007000B7010008B7010008B7010008B701000880
:10008000B7010008B7010008B7010008B701000870
:10009000B7010008B7010008B7010008B701000860
:1000A000B7010008B7010008B7010008B701000850
:1000B000B7010008B7010008B7010008B701000840
:1000C000B7010008B7010008B7010008B701000830
:1000D000B7010008B7010008B7010008B701000820
:1000E000B7010008B7010008B7010008B701000810
:1000F000B7010008B7010008B7010008B701000800
:10010000B7010008B7010008B7010008B7010008EF
:10011000B7010008B7010008B7010008F965000839
:10012000B7010008B7010008B7010008B7010008CF
:10013000B7010008B7010008B7010008B7010008BF
:10014000B7010008B7010008B7010008B7010008AF
:10015000B7010008B7010008B7010008016D0008E9
:10016000B7010008B7010008B7010008B70100088F
:10017000B7010008B7010008B7010008000000003F
:10018000B7010008B7010008DFF80CD000F078FCD8
:100190000048004729850008A8A400200648804799
:1001A00006480047FEE7FEE7FEE7FEE7FEE7FEE75C
:1001B000FEE7FEE7FEE7FEE7E565000889010008C7
:1001C0002DE9F05F0546002092469B46884606468C
:1001D000814640241BE0284641464746224600F01F
:1001E000C7FA53465A46C01A914110D311461846D1
:1001F000224600F0AEFA2D1A67EB01084F46224660
:100200000120002100F0A5FA17EB00094E41201E45
:10021000A4F10104DFDC484631462A464346BDE8E6
:10022000F09F2DE9F0410024061B254671F10006E0
:1002300005DA01240027D0EB070067EB0101161E49
:1002400073F1000605DA0027D2EB0702012567EB00
:100250000303FFF7B5FF86460E4617469C46AC42A1
:1002600004D00025D0EB050E65EB010624B100207B
:10027000D2EB000760EB030C704631463A4663460A
:10028000BDE8F08140EA01039B0703D009E008C9FB
:10029000121F08C0042AFAD203E011F8013B00F84B
:1002A000013B521EF9D27047D2B201E000F8012B97
:1002B000491EFBD270470022F6E710B513460A46E6
:1002C00004461946FFF7F0FF204610BD30B505463D
:1002D0002A460B4612F8010B13F8014B08B1A04255
:1002E000F8D01CB1002802D06D1CF1E7284630BDC3
:1002F00010B5044604E00B7800F8013B03B1491C3B
:10030000521EF8D2204610BDCAB2401E10F8011F7E
:100310008A4202D00029F9D100207047421C10F80F
:10032000011B0029FBD1801A704730B5044600201C
:10033000034600E05B1C934203D2E05CCD5C401BB3
:10034000F8D030BD30B505460020034600E05B1C08
:10035000934205D2EC5CC85C201A01D1002CF6D186
:1003600030BD70B506460BF04DF9046805460A220B
:100370000021304600F01EFA2C6070BD2DE9FE4FC2
:10038000804681EA0300C00F0C46009021F0004136
:1003900023F00045B8EB0200A94105D240462146B2
:1003A00090461C460B46024623F00040104347D0BF
:1003B000270DC7F30A00C3F30A510290401A0190B7
:1003C00040286BDAC3F3130040F4801B0098924678
:1003D00020B10023D2EB030A63EB0B0B01985946C3
:1003E000C0F14002504600F0B4F906460D465046B2
:1003F0005946019A00F0CCF910EB08006141002445
:1004000087EA115284EAE7731A4340D0009A62B334
:10041000019A012A4FEA075215DC001B61EB020129
:100420004FF0004202EA0752CDE90042001C41F5BC
:10043000801132462B4600F03BFA03B0BDE8F08F46
:1004400040462146F9E7001B61EB0201001C41F523
:10045000801300185B412018A2F5001747EB030139
:1004600040EAD570B6196D4111E06D084FEA3606C5
:1004700045EAC0754FEA0752001B61EB0201001C00
:1004800041F5801149084FEA3000001951413246C8
:100490002B4603B0BDE8F04F00F0FBB900980122F5
:1004A00040000023D0EB020263EBE073009821468A
:1004B0004FEAE074B8EB000061EB0401E9E783F078
:1004C00000435BE781F0004158E72DE9FE4F81EAE8
:1004D000030404F0004421F0004100944FF0000BAD
:1004E00023F0004350EA01045ED052EA03045BD0DB
:1004F000C3F30A54C1F30A552C44A4F2F334019413
:10050000A0FB0254C1F3130141F48011C3F31303A0
:1005100043F4801301FB024400FB034E840A970A54
:1005200044EA815447EA8357A4FB076802958D0A81
:1005300005FB07854FEA932C04FB0C542705029D0D
:100540004FEA065847EA1637B5EB08056EEB070C7D
:10055000870E920E47EA811742EA8312A7FB020137
:10056000B6EB0B0164EB00042B0D43EA0C335E1871
:1005700044EB1C50DA465146E7FB0201C5F3130475
:100580004FEA0B3343EA14534FEA0432019C43EA27
:100590000603A4F10C040294009CCDE900B400F021
:1005A00087F903B0BDE8F08F00200146F9E72DE997
:1005B000F04D81EA030404F0004B21F0004514469D
:1005C0004FF0000A23F0004150EA050220D054EA1F
:1005D00001021DD0C5F30A570246C5F31303C1F348
:1005E0001300C1F30A5640F4801543F48013A7EBBF
:1005F0000608101BD64608F2FD3873EB050002D33F
:1006000008F1010801E092185B41B8F1000F03DA2C
:1006100000200146BDE8F08D00204FF48011064611
:1006200084460EE0171B73EB050705D3121B63EB23
:10063000050306434CEA010C49084FEA30009218C2
:100640005B4150EA0107EDD152EA030012D082EA81
:10065000040083EA0501084305D0101BAB4106D214
:100660000122002306E000224FF0004302E06FF079
:10067000010253101AEB06004CEB085110EB0A0074
:1006800041EB0B01BDE8F04D00F003B90EB5C10F11
:1006900080EAE0700844CA07002140F233438DE845
:1006A0000E000A460B4600F003F903B000BD0EB57C
:1006B00040F2334102910021CDE900110A460B4678
:1006C00000F0F6F803B000BD00F0004230F000404A
:1006D0000AD0C10D01F56071C0F3160042EA015164
:1006E000C20840071143704700200146704701F0DF
:1006F000004330B421F0004150EA010206D00A0D57
:10070000A2F56072C1F31301002A02DC30BC0020A4
:100710007047440F44EAC104C100E01830BC00EB4C
:10072000C25000F07FB830B50B46014600202022B1
:10073000012409E021FA02F59D4205D303FA02F5EE
:10074000491B04FA02F52844151EA2F10102F1DC4E
:1007500030BD202A04DB203A00FA02F10020704765
:100760009140C2F1200320FA03F3194390407047EF
:10077000202A04DB203A21FA02F00021704721FAF6
:1007800002F3D040C2F1200291400843194670475D
:10079000202A06DBCB17203A41FA02F043EAE07345
:1007A00006E041FA02F3D040C2F120029140084332
:1007B000194670472DE9F04791460F46804604469A
:1007C000002614F8015B2DB100F06CF90068405D63
:1007D000C007F6D12B2D02D02D2D18D0641E4A460D
:1007E0003946204600F062F927B13968A14201D1AB
:1007F000C7F8008071054FF002040BD54042002875
:1008000003DD0AF0FFFE0460A007BDE8F08746F4B0
:100810008066E4E70028F8DA0AF0F4FE04606FF07E
:100820000040F2E70029A8BF7047401C490008BFFC
:1008300020F00100704710B4B0FA80FC00FA0CF010
:1008400050EA010404BF10BC704749B1CCF1200448
:1008500021FA04F411FA0CF118BF012121430843D5
:10086000A3EB0C01CB1D4FEA00614FEA102042BF01
:10087000002010BC704700EBC35010440029A4BFF7
:1008800010BC7047401C490008BF20F0010010BC9C
:10089000704710B5141E73F1000408DA401C41F1D2
:1008A000000192185B411A4301D120F0010010BDF4
:1008B0002DE9F04D92469B4611B1B1FA81F202E06A
:1008C000B0FA80F220329046FFF743FF04460F460D
:1008D00040EA0A0041EA0B0153465A46084313D046
:1008E000114653EA010019D0C8F140025046FFF703
:1008F0003FFF05460E46504659464246FFF729FF40
:10090000084305D0012004E020463946BDE8F08DBB
:100910000020054346EAE0762C4337430A986305F6
:10092000E40AA0EB08000022FD0A44EA47540A301A
:1009300002D500200146E9E7010510196941DDE90A
:10094000084500196941BDE8F04DA2E72DE9F04DD9
:1009500000231A461B1A8A4103DB00200146BDE82A
:10096000F08DC1F30A52C1F3130141F480154FF029
:10097000000BD10702D100186D41521E002704461A
:1009800040F2FF11384601EB620A3E4680460246BD
:1009900000204FF48011FFF7EBFEC2197141BB1824
:1009A00046EB0100B4EB030C75EB000C04D3E41A26
:1009B00065EB000517460E46241908F101006D414C
:1009C00080463428E3DDF91946EB0600091BA841EF
:1009D00003D24FF0FF32134601E0002213461BEB17
:1009E000070046EB0A51BDE8F04DFFF752BFC1F3D7
:1009F0000A52C1F3130140F2FF3341F480119A42CD
:100A000002DA00200146704740F233439A42A2F2D4
:100A1000334202DC5242FFF7ABBEFFF79ABE000042
:100A200030B5041E71F1000404DB4FF00044404275
:100A300064EB0101141E73F1000405DB1C464FF04A
:100A40000043524263EB04038B4208BF824230BD35
:100A500030B5041E71F1000404DB4FF00044404245
:100A600064EB0101141E73F1000405DB1C464FF01A
:100A70000043524263EB0403994208BF904230BDE9
:100A8000064C074D06E0E06840F0010394E80700DB
:100A900098471034AC42F6D3FFF77AFBEC2B0108F1
:100AA0000C2C01080048704754D400082DE9F05F71
:100AB00082460078002715468B460AF10104B946A4
:100AC000302801D09DB113E014F8010B01277828DC
:100AD00003D0582801D045B10AE00DB1102D07D13F
:100AE0000027102514F8010B02E0082500E00A2574
:100AF0000026B0460EE005FB080005FB06F10127C5
:100B000001EB10461FFA80F8B6F5803F00D3B946D6
:100B100014F8010B294600F037F80028EBDABBF196
:100B2000000F05D00FB1641E00E05446CBF8004022
:100B3000B9F1000F06D00AF065FD02210160C81E60
:100B4000BDE8F09F48EA0640FAE770B5C1F30A52E3
:100B500001F000450024C1F3130140F2FF3341F4DA
:100B600080119A4201DA002070BD40F233439A426C
:100B7000A2F2334203DC5242FFF7FAFD00E090405C
:100B80002C43F1D0404270BD3A2800D2303820F0DA
:100B90002002412A01D3A2F13700884201D34FF04D
:100BA000FF30704770B541F2E474C2F200040546AC
:100BB00020460E4602F000F9701E062888BF70BD60
:100BC0000DA030F8160044F24021C0F20F01B1FB35
:100BD000F0F02168C862E0604008486308F0C2FB9A
:100BE00041F218512844C2F2000108602046002159
:100BF00002F040FB70BD00BFEE010B024C029402FC
:100C0000BA0210037003DC0310B541F21854C2F2AB
:100C10000004206870B108F0A5FB2168884238BF45
:100C200010BD0020206041F2E470C2F200000021FB
:100C300002F0B2FB10BD0000FEE7000041EA002018
:100C40007047000070B514460D46064604F0BCF827
:100C5000CC2000F061F84E2000F05EF8204600F055
:100C60005BF8284600F058F8304600F055F804F0DC
:100C7000ABF8CC2000F050F8482000F04DF841F2DD
:100C80000004C4F2020400BF2046012101F0BAFAB8
:100C90000028F9D070BD000070B541F20004C4F224
:100CA000020420460121012201F0B2FA052006F0DB
:100CB000B5FB0825204601210022C6F3460601F0B7
:100CC000A7FA052006F0AAFB20460121012201F027
:100CD0009FFA052006F0A2FB2046012101F092FABE
:100CE00000284FF0410018BF66F07F0606F096FB23
:100CF00020460121012201F08BFA013D2806D9D1BD
:100D0000F0B270BD80B504F05FF8CC2000F004F8BC
:100D1000442000F001F880BDF0B581B041F200043C
:100D200005460826C4F2020420460121002201F0F3
:100D30006FFA052006F072FB05F001022046012142
:100D4000EFB201F065FA412006F068FB2046012170
:100D5000012201F05DFA022006F060FB013E300640
:100D60004FEA5705E0D101B0F0BD000080B586B074
:100D700000200590CDE90300CDE90100009043F685
:100D80003000C4F20200016841F010010160006807
:100D900001A900F01000009000980120CDE90100A9
:100DA00041F20000C4F2020001F05EF906B080BD1D
:100DB0004EF6FC50CEF20000016841F080710160F7
:100DC00041F20000CEF20000016841F00101016033
:100DD00000214160704700007047000070B5044674
:100DE0004D1E00202A1A215CB2FA82F2461C5209DA
:100DF000C0B206F063F9012008F0A4FA042E3046D0
:100E0000F0D170BD2DE9F04381B00646147803F0AF
:100E100007000D460FF21401089F01EB800140F21C
:100E200078099046C2F20009DFE800F0041423328A
:100E300041505F6E99F81C0061B2421E18BF01223A
:100E4000B1F1FF3FD8BF0246B0B2A9B204F0EEFA4A
:100E5000013F6CD099F81C00731C421E18BF012280
:100E6000610648BF0246A9B298B204F0DFFA013F1A
:100E70005DD099F81C00B31C421E18BF0122A106C8
:100E800048BF0246A9B298B204F0D0FA013F4ED052
:100E900099F81C00F31C421E18BF0122E10648BF4E
:100EA0000246A9B298B204F0C1FA013F3FD099F8C6
:100EB0001C00331D421E18BF0122210748BF0246F5
:100EC000A9B298B204F0B2FA013F30D099F81C00F0
:100ED000731D421E18BF0122610748BF0246A9B216
:100EE00098B204F0A3FA013F21D099F81C00B31D79
:100EF000421E18BF0122A10748BF0246A9B298B2FC
:100F000004F094FA013F12D099F81C00F31D421E20
:100F100018BF0122E10718BF0246A9B298B204F037
:100F200085FA013F03D018F8014F083682E701B077
:100F3000BDE8F083B0B586B000F0AEFE4EF63C30B2
:100F4000C0F6000000F0FEFF002000F0F1FF42F6C6
:100F50000D00C0F601000021002200F03BFF01203F
:100F600000F0E6FF42F60400C0F6010000210D2269
:100F700000F030FF42F2EA70C0F6010000211A22B0
:100F800000F028FF42F2E170C0F6010000212722A4
:100F900000F020FF42F61600C0F6010000213422C6
:100FA00000F018FF34200021802200F03BFF3020A9
:100FB0000021342200F054FF41F61010C2F200006C
:100FC0000078022836D0012858D0002840F07781D8
:100FD000C9A03221002200F0FDFECAA032211A224F
:100FE00000F0F8FE41F68C60C2F200000068FFF7E6
:100FF0006BFB01AC02460B46C5A120460AF0D6FAAF
:1010000020465A210D2200F0E5FE41F60810C2F2FA
:101010000000017842F62C0242F2F370C0F60102A1
:10102000C0F60100002908BF10465A21272200F00F
:10103000D1FE44E141F28475C2F20005B5F9002009
:1010400001ACA1A120460AF0B1FA204632210022CB
:1010500000F0C0FEB5F90010B5F90000012931DB40
:1010600037214843C11700EB5140462101EBE032E4
:1010700046200D21102300F0F7FE35E041F2105517
:10108000C2F20005B5F9002001AC95A120460AF096
:101090008DFA20463221002200F09CFEB5F90010A6
:1010A000B5F90000012943DB37214843C11700EBA4
:1010B0005140462101EBE03246200D21102300F083
:1010C000D3FE47E0B0F1FF3F0EDCB5F90000372159
:1010D0004843C11700EB51404621A1EBE0324620C6
:1010E0000D21102300F0B8FE41F28675C2F2000512
:1010F000B5F9002001AC76A120460AF057FA204647
:101100003221112200F066FEB5F90010B5F9000099
:10111000012943DB37214843C11700EB51404621E9
:1011200001EBE03246201E21212300F09DFE47E026
:10113000B0F1FF3F0EDCB5F9000037214843C1177D
:1011400000EB51404621A1EBE03246200D21102357
:1011500000F082FE41F21255C2F20005B5F90020FE
:1011600001AC61A120460AF021FA20463221112269
:1011700000F030FEB5F90010B5F90000012943DB9D
:1011800037214843C11700EB5140462101EBE032C3
:1011900046201E21212300F067FE47E0B0F1FF3F0B
:1011A0000EDCB5F9000037214843C11700EB514070
:1011B0004621A1EBE03246201E21212300F04CFE07
:1011C00041F28875C2F20005B5F9002001AC42A1D8
:1011D00020460AF0EBF920463221222200F0FAFDE7
:1011E000B5F90010B5F90000012943DB3721484368
:1011F000C11700EB5140462101EBE03246202F2180
:10120000322300F031FE5AE0B0F1FF3F0EDCB5F9B9
:10121000000037214843C11700EB51404621A1EBA4
:10122000E03246201E21212300F016FE41F2145523
:10123000C2F20005B5F9002001AC2DA120460AF04C
:10124000B5F920463221222200F0C4FDB5F9001084
:10125000B5F90000012920DB37214843C11700EB15
:101260005140462101EBE03246202F21322300F08D
:10127000FBFD24E0B0F1FF3F21DCB5F90000372190
:101280004843C11700EB51404621A1EBE032462014
:101290002F21322300F0E0FD11E0B0F1FF3F0EDC22
:1012A000B5F9000037214843C11700EB51404621F2
:1012B000A1EBE03246202F21322300F0CDFD00F0DB
:1012C00057FE06B0B0BD00BF67783A25366400000F
:1012D00067793A2536640000677A3A25366400005B
:1012E00061783A253664000061793A253664000059
:1012F000617A3A2536640000B5B1C7B0CEC2B6C82F
:101300003A000000D5F0B6AFB1A8BEAF3A00000079
:10131000252E3166A1E60000F0B581B02DED068BDB
:1013200086B000F0B9FC4EF63C30C0F6000000F08C
:1013300009FE42F60D00C0F601000021002200F077
:1013400049FD002000F0F4FD42F60400C0F6010063
:1013500000210D2200F03EFD012000F0E9FD42F2E7
:10136000EA70C0F6010000211A2200F033FD42F2BB
:10137000E170C0F601000021272200F02BFD42F6AB
:101380001600C0F601000021342200F023FD3420B5
:101390000021802200F046FD30200021342200F0A0
:1013A0005FFD41F61010C2F200000078042800F240
:1013B0008F81DFE810F005007700CD002201760173
:1013C00041F68C60C2F200000068FFF77DF901ACC5
:1013D00002460B46D3A120460AF0E8F82046322107
:1013E000002200F0F7FC40F20C059FEDC38A6FF07D
:1013F0000504C2F20005B3EE09AAB1EE009A00BFDF
:1014000095ED000A04F13601B8EEC00A3AEE400A42
:1014100020EE090A30EE080ABDEEC00A10EE100AEE
:1014200004F1390200F0FEFC06344A2CE8D341F204
:101430002455C2F2000528680228C0F2498149F605
:101440001850C2F20000061F3124BBEE09AA00BFEB
:1014500096ED010A96ED021A30EE0A0A20EE090A0C
:1014600038EE400ABDEEC00A10EE101A31EE0A0A3C
:1014700020EE090A38EE400ABDEEC00A601E10EEEA
:10148000103A2246A4F1300700F0D4FC4E2F00F2AF
:101490001F812868A4F12F010436814204F1010460
:1014A000D6DB15E141F24050C2F200000068FFF7C0
:1014B0000BF901AC02460B4694A120460AF076F8DF
:1014C00020463221002200F085FC2020302180229D
:1014D00000F0A8FC41F21C55C2F200052868022861
:1014E000C0F2F68049F69820C2F200009FED8B8A88
:1014F0009FED8B9A9FED80AA061F312496ED010A7D
:1015000096ED021A30EE080A20EE090A3AEE400A79
:10151000BDEEC00A10EE101A31EE080A20EE090ADC
:101520003AEE400ABDEEC00A601E10EE103A2246A6
:10153000A4F1300700F07EFC4E2F00F2C98028682D
:10154000A4F12F010436814204F10104D6DBBFE08F
:1015500041F24450C2F200000068FFF7B5F801AC58
:1015600002460B4665A120460AF020F820463221AB
:10157000002200F02FFC20203021802200F052FCBD
:1015800041F22055C2F2000528680228C0F2A0806E
:1015900049F6D830C2F200009FED558A9FED559A6A
:1015A0009FED55AA061F312496ED010A96ED021A09
:1015B00030EE080A20EE090A3AEE400ABDEEC00AF3
:1015C00010EE101A31EE080A20EE090A3AEE400A2F
:1015D000BDEEC00A601E10EE103A2246A4F130079C
:1015E00000F028FC4E2F73D82868A4F12F01043690
:1015F000814204F10104D7DB6AE041F24850C2F2B3
:1016000000000068FFF760F801AC02460B4634A109
:10161000204609F0CBFF20463221002200F0DAFB01
:1016200020203021802200F0FDFB41F22855C2F23B
:101630000005286802284BDB49F65860C2F200001A
:101640009FED2B8A9FED2B9A9FED2BAA061F31242D
:1016500096ED010A96ED021A30EE080A20EE090A0C
:101660003AEE400ABDEEC00A10EE101A31EE080A3A
:1016700020EE090A3AEE400ABDEEC00A601E10EEE6
:10168000103A2246A4F1300700F0D4FB4E2F1FD8A9
:101690002868A4F12F010436814204F10104D7DB4C
:1016A00016E041F24050C2F2000090ED000A41F213
:1016B0004450C2F20000D0ED000A41F24850C2F29C
:1016C000000090ED001A012058211C2203F0B4FA0A
:1016D00000F04EFC06B0BDEC068B01B0F0BD00BFC3
:1016E000BABDCFF2BDC73A252E3166A1E300000096
:1016F00000003443398EE33D00005042BAE1B9F6B0
:10170000BDC73A252E3166A1E3000000B8A9D1F685
:10171000BDC73A252E3166A1E30000000000B442A7
:10172000398E633ECEC2B6C83A252E3166A1E60098
:10173000B0B588B000F0B0FA4EF63C30C0F600000C
:1017400000F000FC42F60D00C0F60100002100226E
:1017500000F040FB42F60400C0F6010000210D221B
:1017600000F038FB002000F0E3FB42F2EA70C0F624
:10177000010000211A2200F02DFB012000F0D8FB0F
:1017800042F2E170C0F601000021272200F022FBA6
:1017900042F61600C0F601000021342200F01AFBC8
:1017A00041F24E55C2F2000595F8001242F2FD706A
:1017B000C0F6010000294FF032014FF0000218BFBF
:1017C00005F2162000F006FB22A032210D2200F0C7
:1017D00001FB0DF1020423A1204641F6852209F008
:1017E000E5FE204632211A2200F0F4FA95F80112A3
:1017F00042F2A87242F2AB70C0F60102C0F60100DC
:10180000032908BF10463221272200F0E3FA41F2F3
:101810004C50C2F20000017842F2DA7242F2F670E5
:10182000C0F60102C0F60100002908BF104646219B
:10183000272200F0CFFA34200021802200F0F2FAB3
:1018400030200021342200F00BFB00F091FB08B0A7
:10185000B0BD00BF3139322E3136382E3133372EFC
:1018600031000000B6CBBFDABAC53A2564000000EB
:1018700070B586B000F010FA4EF63C30C0F60000AD
:1018800000F060FB42F60D00C0F6010000210022CE
:1018900000F0A0FA42F60400C0F6010000210D227B
:1018A00000F098FA42F2EA70C0F6010000211A2214
:1018B00000F090FA002000F03BFB42F2E170C0F62D
:1018C00001000021272200F085FA012000F030FB02
:1018D00042F61600C0F601000021342200F07AFA28
:1018E0003DA03221002200F075FA3EA032210D22E7
:1018F00000F070FA3FA032211A2200F06BFA40A0EB
:101900003221272200F066FA40F20C06C2F20006ED
:10191000326801AC3DA1204609F048FE41F27C75D9
:10192000C2F200052868002818BF012000F000FB63
:1019300020466821002200F04DFA726835A1204649
:1019400009F034FE2868013818BF012000F0F0FAD1
:10195000204674210D2200F03DFAB2682EA12046E7
:1019600009F024FE2868023818BF012000F0E0FAD0
:10197000204668211A2200F02DFA96ED030A9FED09
:10198000281AB8EEC00A80EE010A10EE100AFEF71F
:101990009BFE02460B4623A1204609F007FE28685D
:1019A000033818BF012000F0C3FA2046682127221F
:1019B00000F010FA012000F0BBFA34200021802250
:1019C00000F030FA30200021342200F049FA00F013
:1019D000CFFA06B070BD00BFCEC2B6C8C9CFCFDE49
:1019E000A3BA0000D5F0B6AFC1E9C3F4B6C8A3BA34
:1019F00000000000B1A8BEAFCAB1B3A4A3BA0000F2
:101A0000C9CFB4ABBCE4B8F4A3BA00002564A1E626
:101A100000000000256400002564C3EB0000000006
:101A200000007A44252E316673000000B0B541F6FF
:101A30000414C2F20004256807F094FCA5B12168E3
:101A400001F5FA61884211D907F08CFC216841F256
:101A500088321144884215D907F084FC216801F5C9
:101A6000FA51884223D900202060B0BD00F014F95B
:101A70004EF67C30C0F6000000F064FA16A040215B
:101A80000C220FE000F008F94EF65C30C0F60000C2
:101A900000F058FA17A04021002200F0A5F91AA082
:101AA0004021202200F0A0F900F062FAB0BD00F061
:101AB000F3F841F60C30C0F601000021002200F0DE
:101AC000ADF941F61C30C0F601004021002200F0C3
:101AD000A5F900F04DFAB0BDB7C0BBF0A1A2B7C0E8
:101AE000B5C1D4B60AB3CCBCE0B2E2C6F7C9E8BC13
:101AF000C6000000B3C9D4B131B6ADD1D40A323179
:101B00003034313530390000B3C9D4B132C0D6ECED
:101B1000DA0A3231303431353136000072B600BF66
:101B2000FEE7000010B5ADF5007D40F26C00C2F29A
:101B300000000068694600220023002407F04AFCE8
:101B400018B9684602F0AEFF012420460DF5007D6D
:101B500010BD000080B50D2808BF80BD0A2802D145
:101B600000F0B4F880BD40F27801C2F200010969CA
:101B70000968884780BD000010B582B0944602888D
:101B80004388B0F804E0846808466146CDF800E078
:101B9000019402F0C5F902B010BD00002DE9F04338
:101BA00083B040F27808C2F20008D8F8105004461A
:101BB000A9690846214600F03DF8C0B3018846688F
:101BC000671A06EBC70999F80240B8F91400B8F98A
:101BD000161016F837202B7DD9F80450CDE90045B2
:101BE00002F09EF9D8F81000027D417D914213D990
:101BF000B8F81400B8F8163016F8377098F81C606A
:101C00001A4407440B44013E91B2BAB29BB218BFCA
:101C10000126009603F04AFBD8F8100099F801104D
:101C2000807DB8F8142010FB0120A8F8140003B040
:101C3000BDE8F08305E000BF42888A4228BF7047B4
:101C4000806818B102888A42F6D9F9E77047000027
:101C5000B0B540F27801C2F200010D690446A969ED
:101C600008462146FFF7E6FF38B101884068611A4F
:101C700010F83100A97D4843B0BD0020B0BD000080
:101C8000012008807047000080B58069FFF7D2FF0F
:101C9000002818BF012080BD80B50020002100F081
:101CA0001FF9002000218022402300F001F880BDB0
:101CB00080B582B04FF0000C80B289B292B29BB274
:101CC000CDF800C003F0F2FA02B080BD80B500F09C
:101CD000E7F840F27801C2F20001CA8A1044C882D3
:101CE00080BD0000002808BF70472DE9F04F83B089
:101CF000074600F0D5F840F27806C2F20006B6F8C2
:101D000014A0834600F0D4F8F18A0090081AF082FB
:101D100011E000BF708B00F003000138022850462C
:101D200028BF0020B08238780A2808BFF48217F84C
:101D3000010B002841D0387800283ED0384647F6BD
:101D4000FF7100F027F905463846294600F01EF9D4
:101D5000718B01F00301012906D0022912BF002175
:101D600000EBD071491000E00146B28AB6F8169037
:101D7000511A01EB0008A8F1010009EB0B04ADF8C2
:101D80000800601EB182ADF80410ADF80A003846B4
:101D9000294601AAADF8069000F0EEF8384629462B
:101DA000A6F8169000F0E2F8395C07440D29B1D08E
:101DB0000A29AFD0A6F81480B9E7F08A0099084440
:101DC000718BF08221F00300708303B0BDE8F04F07
:101DD0007047000080B540F27803C2F20003998298
:101DE000DA82FFF77FFF80BDF0B581B00D4640F28B
:101DF0007801C2F20001B1F91A10064641F0020062
:101E0000144600F0A9F80746304629462246FFF757
:101E1000E1FF384600F0A0F801B0F0BD80B5FFF753
:101E2000ABFE80BD80B503460846194602F0C2F8F5
:101E300080BD000080B582B040F2780CC2F2000C88
:101E40009CF81CC080B289B292B29BB2CDF800C09F
:101E500003F058FA02B080BD80B505F0B9F980BD35
:101E600080B502F0CDF880BDF0B581B099420BDAB3
:101E70001C4615460E460746384631462A4602F0AD
:101E800099F80136B442F7D101B0F0BD80B540F207
:101E90007801C2F2000109694968884780BD0000E5
:101EA00040F27800C2F200000069407D70470000F7
:101EB00040F27800C2F20000418B01F00C010C29C5
:101EC00018BF082903D10069007D40087047042924
:101ED0001CBF002070470069007D0138704700007A
:101EE00010B50C4605F0D6F9204605F0D9F90020CA
:101EF00010BD000080B540F29800C2F200002E2113
:101F0000017040F278007F22C2F200000021C0F28E
:101F10003F02C0E900124DF24452C0F60002C0E98F
:101F2000042101214172017703F010FB002080BDE4
:101F300040F27801C2F200010A7F824218BF08779E
:101F40007047000040F27802C2F2000201461069B8
:101F5000002918BF1161704740F27803C2F20003F4
:101F6000B3F91A10024608465A837047084670476C
:101F700080B503F095FA80BD80B5126840F2780311
:101F8000C2F200035A6105F003F980BD80B505F087
:101F90003BF980BD80B505F05FF980BD70B5866DF9
:101FA000044600F03BF994F83510022925D1054686
:101FB0002068216C026822F016020260426922F059
:101FC0008002426109B9A16C19B1016821F00801D0
:101FD0000160016821F00101016000BF2068006814
:101FE000C0070ED000F01AF9401B0628F6D32020B7
:101FF0006065032084F835000CE0802060650120D6
:1020000008E0E06D3F2101FA00F0B060012084F8A3
:1020100035000020002184F8341070BD90F8351090
:10202000022909D1052180F835100068016821F0E6
:102030000101016000207047802141650120704747
:10204000B0B5044600F0EAF8054640F25C00C2F282
:1020500000000078611C18BF044400BF00F0DEF8E7
:10206000401BA042FAD3B0BD2DE9F04F83B000F180
:102070003E4202F1FF724FEAB22241F6004701925E
:10208000C4F2020708224FF0010E00254FF0000AAB
:102090004FF00008B84208BF072200920AE000BFD4
:1020A00008F101080AF1040AB8F1100F05F1020560
:1020B00000F0A4800C680EFA08FB14EA0B09EFD0BC
:1020C0004C6804F0030CACF1010EBEF1010F11D805
:1020D0000322876802FA05F6CA68B743AA403A4362
:1020E00082604268C4F3001722EA0B0207FA08F77D
:1020F0003A434260BCF1030F1CD0C26803238E68D0
:1021000003FA05F7BA4306FA05F73A43BCF1020FA2
:10211000C2600FD16FF0030202EA580202440AF0D3
:102120001C060F23176A03FA06F40B69A743B34092
:102130003B431362026803234F68AB409A4307F0A6
:102140000303AB401A4317F4403F4FF0010E026007
:10215000A6D0002243F644030292C4F202031A6896
:1021600043F6004442F480421A601A68C4F2010443
:1021700002F480420292029A28F003024FF6084BC2
:102180002244CFF6FF7B52F80B300AF00C070F26E3
:10219000BE4023EA060C019B009E072B38BF1E465B
:1021A00006FA07F747EA0C0342F80B30A2684B68BF
:1021B00042EA090743F60C4CDE0258BF22EA09073F
:1021C000A760C4F2010CDCF800209E0242EA090775
:1021D00058BF22EA0907CCF8007062689E0342EA01
:1021E000090758BF22EA090767602268DB0342EA51
:1021F000090358BF22EA0903236051E703B0BDE891
:10220000F08F00000069084018BF012070470000EF
:10221000002A08BF090481617047000049F2C830F4
:10222000C2F200000068704740F25C0049F2C83119
:10223000C2F20000C2F2000100780A68104408608F
:102240007047000080B543F60040C4F20200016808
:1022500041F400710160016841F48061016001682E
:1022600041F480710160032000F098F80F2000F025
:1022700005F800F05BF8002080BD000070B586B066
:10228000002543F640010195C4F202010A680446A4
:1022900042F020020A60096801A801F020010191C2
:1022A0000199694600F02EF9049E002E18BF012600
:1022B00000F04EF94DF68361B040C4F21B31A0FB33
:1022C00001014FF0FF3000EB914141F62C0041F24B
:1022D0000042C2F20000C4F2000240F2E733C0E95B
:1022E0000021C0E902530561856100F01BFD054630
:1022F000C0B941F62C00C2F2000000F0ADFD054669
:1023000080B9372000F036F80F2C0AD83720214644
:10231000002200F033F840F26000C2F200000460D6
:1023200000E00125284606B070BD000080B582B0EF
:10233000002043F640010190C4F202014A6842F4D1
:1023400080424A604A6802F480420192019A0090F9
:102350000868002240F08050086008680F2100F0F3
:102360008050009000986FF0010000F007F802B074
:1023700080BD000080B504F099FF80BD70B51446A3
:102380000D46064604F0A2FF2946224602F092FAC4
:102390000146304604F0A2FF70BD000080B504F095
:1023A000B7FF80BD2DE9F041002800F08B8043F697
:1023B0000808C4F202080446D8F8F8030D4600F0F5
:1023C0000700884207D288F8F853D8F8F80300F0DD
:1023D0000700A84276D12068810717D5410705D5A7
:1023E000D8F8001041F4E051C8F80010010705D5F5
:1023F000D8F8001041F46041C8F80010D8F8001077
:10240000A26821F0F0011143C8F80010C0073FD1C5
:10241000D8F8F80300F00700A84207D988F8F85365
:10242000D8F8F80300F00700A8424BD12068410714
:1024300007D5D8F80010E26821F4E0511143C8F83C
:102440000010000708D5D8F80000216920F460408A
:1024500040EAC100C8F8000000F09EF8D8F800106B
:102460004DF25E42C1F30311C0F60002515C40F22E
:10247000040220FA01F140F26000C2F2000000689C
:10248000C2F200021160FFF7F9FE0020BDE8F08102
:102490006068811E022907D258F8081C89015CBFB8
:1024A0000120BDE8F08110E0012807D158F8081C90
:1024B00089035CBF0120BDE8F08106E058F8081CE4
:1024C000890702D40120BDE8F081D8F8001021F07E
:1024D00003010843C8F80000FFF7A0FE064641F2DA
:1024E000883700BFD8F80000616800F00C00B0EB3E
:1024F000810F8DD0FFF792FE801BB842F2D90320E6
:10250000BDE8F0810F22026043F60802C4F2020225
:10251000136803F003034360136803F0F003836060
:10252000136803F4E053C360D2F800C04FF4E053E3
:1025300003EADC030361D2F8F80300F00700086047
:102540007047000040F20400C2F2000000687047CB
:1025500080B5FFF7F7FF43F60801C4F202010968EE
:102560004DF26E42C1F38221C0F60002515CC840B8
:1025700080BD000080B5FFF7E5FF43F60801C4F217
:10258000020109684DF26E42C1F34231C0F6000209
:10259000515CC84080BD000010B543F60404C4F28D
:1025A0000204606800F00C0142F200400829C0F209
:1025B000F40007D0042918BF10BD41F20020C0F27A
:1025C0007A0010BD216801F03F02216823684902AA
:1025D000C3F3881105D4A1FB00010023FDF7F0FD32
:1025E00006E041F20020C0F27A004843B0FBF2F06E
:1025F00021680222C1F3014102EB4101B0FBF1F07D
:1026000010BD00002DE9F04182B0002800F0A2804A
:102610000446007843F60006C007C4F2020643D021
:10262000B06800F00C00042805D1306880033BD569
:102630006068C8BB8EE0B06800F00C00082802D1CA
:1026400070684002F1D46568B5F5A02F0AD0B5F5E1
:10265000803F0BD0306820F480303060306820F448
:10266000802006E0306840F480203060306840F41C
:1026700080303060FFF7D2FD002D054611D000BF3D
:102680003068800310D4FFF7C9FD401B6428F7D9D8
:1026900022E100BFFFF7C2FD401B64284FF003009A
:1026A00055D830688003F5D4207880071AD5B068F3
:1026B00010F00C0F09D0B06800F00C00082840F0B2
:1026C0008A807068400200F186803068800702D5F9
:1026D000E06801283ED13068216920F0F80040EA26
:1026E000C10030602078000738D4207840074CD4EF
:1026F000A5695DB3B06800F00C00082840F09E802A
:10270000012D27D07068E16900F480028A4221D14E
:10271000216A00F03F028A421CD147F6C071626A0A
:102720000140B1EB821F15D1A26A0023CFF6FF73DF
:1027300003EBC23200F440316FF30F02914209D132
:10274000E16A00F07060B0EB016F03D1002002B0CD
:10275000BDE8F081012002B0BDE8F0816069002889
:1027600040F20000C4F2472057D00121C0F8801E7B
:10277000FFF754FD054600BF706F8007B5D4FFF723
:102780004DFD401B0228F7D9A6E0306C10F08058B0
:102790000AD100200190306C40F080503064306CE1
:1027A00000F080500190019847F20007C4F2000742
:1027B0003868C00524D4386840F480703860FFF76A
:1027C0002DFD05463868C0051AD4FFF727FD401BCC
:1027D0000228F7D980E0E068002851D00020C4F238
:1027E000472001210160FFF719FD05463068800789
:1027F0003FF571AFFFF712FD401B0228F6D96BE0E1
:10280000A568052D50D0012D52D0306F20F0010069
:102810003067306F20F004004DE00021C0F8801ECA
:10282000FFF7FCFC054600BF706F80077FF55DAFCA
:10283000FFF7F4FC401B0228F6D94DE00027C4F254
:10284000472700203866FFF7E9FC022D05460BD12B
:102850003068800158D5FFF7E1FC401B02284FF09B
:102860000300F5D973E700BF306880017FF56EAFD4
:10287000FFF7D4FC401B02284FF00300F4D966E7B1
:102880000020C4F2472000210160FFF7C7FC054685
:10289000306880077FF526AFFFF7C0FC401B022899
:1028A0004FF00300F4D952E7306F40F00400306776
:1028B000306F40F001003067FFF7B0FC002D054697
:1028C00041F2883714D000BF306F800713D4FFF770
:1028D000A5FC401BB842F7D9032002B0BDE8F08147
:1028E000FFF79CFC401BB8424FF003003FF62FAFB0
:1028F000306F8007F4D4B8F1000F7FF4F9AE306C7C
:1029000020F080503064F3E604F11C052FCD08431D
:102910000021CFF6FF7140EA821001EBC3316FF363
:102920000F0140EA05600843706001203866FFF738
:1029300075FC0446306880013FF508AFFFF76EFC78
:10294000001B02284FF00300F4D900E770B538B13E
:102950000446406A30B10020206104F1140007E011
:10296000012070BD6068B0F5827F03D004F11C00C7
:10297000002101600026A66294F8510020B920468B
:1029800084F8506000F03CF8022084F8510094E88C
:102990000F0001F48271056802F4044225F040053D
:1029A0000560114403F400622369114403F002023C
:1029B0006369114403F00102A369E569114403F45A
:1029C0000072114405F03802256A114405F08002B6
:1029D000A56A114305F4005211430160626A0421A3
:1029E00001EA134102F0100211444160C16921F46F
:1029F0000061C1610120666584F85100304670BDF8
:102A000080B586B043F200010068C4F201010022E3
:102A100088420592CDE903220292019201D006B0CC
:102A200080BD43F630000092C4F20200436943F4D3
:102A300080534361436903F480530093009B0092E9
:102A4000036843F001030360006800F00100009098
:102A50000098E02001900220CDE9020203200490BA
:102A60000520059001F5504001A9FFF7FDFA06B0D9
:102A700080BD00002DE9F04381B0044690F850007D
:102A8000012803D1022001B0BDE8F08301201E46D9
:102A900015460F4684F85000FFF7C0FB94F851101C
:102AA000814601290CD06068B0F5827F75D1042978
:102AB0004FF0020040F0B280A168002940F0AE80E3
:102AC000002F4FF0010018BF002D00F0A780002E4E
:102AD00000F0A48094F85100002104281CBF0520B8
:102AE00084F851006165A563E687A6872763E686BB
:102AF0002068A686216461640168490603D40168E0
:102B000041F0400101606168731EE268B1FA81F131
:102B1000B3FA83F3DDF8208049095B09B2F5006F51
:102B200041EA03013BD139B1216B0988C160B81C6E
:102B30002063E08E0138E086012608F1010500BF20
:102B4000E08E10B9E08F00286ED020688168890778
:102B50000CD5E18E012E09D141B1216B002631F84F
:102B6000022BC2602163E18E0139E1868168C907C9
:102B70000AD0E18F41B1C068A16B012621F8020B98
:102B8000A163E08F0138E087FFF748FB002DD7D025
:102B9000A0EB09004045D3D33CE002203EE039B130
:102BA00039780173206B01302063E08E0138E086B4
:102BB000012608F1010500BFE08E08B9E08F98B347
:102BC0002068816889070DD5E18E012E0AD149B1AF
:102BD000216B002609780173206B01302063E08EA1
:102BE0000138E08620688168C9070BD0E18F49B1C0
:102BF000C068A16B01260870A06B0130A063E08F54
:102C00000138E087FFF70AFB002DD5D0A0EB0900C3
:102C10004045D1D3012084F851000320002184F8DD
:102C2000501001B0BDE8F083204641464A4602F00C
:102C300089FA18B1202060650120EFE7A06838B953
:102C4000002000902068C168009180680090009882
:102C5000606D00284FF0010004BF84F8510000208F
:102C6000DCE70000704700007047000010B590F8E6
:102C70003C20012A4FF0020252D0012380F83C3060
:102C800080F83D200268D2F804E0D2F808C00C6851
:102C90002EF07003234341F2FF74C4F20004A242F9
:102CA00053600DDC40F2FF73C4F200039A4215DC5E
:102CB000B2F1804F29D040F20043C4F2000322E079
:102CC00040F2FF33C4F201039A4212DC41F60003E2
:102CD000C4F200039A4218D0002312E040F6000329
:102CE000C4F200039A4210D040F60043C4F200033D
:102CF00009E044F20003C4F201039A4205D040F215
:102D00000043C4F201039A4204D149682CF08003C5
:102D1000194391600121002280F83D1080F83C2089
:102D2000104610BD002804BF0120704710B50446AE
:102D300090F83D0028B9002084F83C00204600F0BF
:102D40001FF8022084F83D002068211D03F05CFC80
:102D5000012084F8460084F83E0084F83F0084F89F
:102D6000400084F8410084F8420084F8430084F86D
:102D7000440084F8450084F83D00002010BD0000A8
:102D800081B0006840F20041C4F20001884201D0E5
:102D900001B070470020009043F64000C4F20200EA
:102DA000016841F002010160006800F0020000903B
:102DB000009801B07047000090F83D1001291CBF39
:102DC00001207047022180F83D10006841F2FF7138
:102DD000C4F2000188420DDC40F2FF71C4F2000130
:102DE000884215DCB0F1804F29D040F20041C4F296
:102DF000000122E040F2FF31C4F20101884212DCFE
:102E000041F60001C4F20001884218D0002112E00E
:102E100040F60001C4F20001884210D040F60041A3
:102E2000C4F2000109E044F20001C4F20101884249
:102E300005D040F20041C4F20101884206D1816808
:102E400001F00701062904BF00207047016841F026
:102E5000010101600020704790F83D1001291CBF5E
:102E600001207047022180F83D10006841F2FF7296
:102E7000C168C4F20002904241F00101C1600DDC62
:102E800040F2FF71C4F20001884215DCB0F1804FBE
:102E900029D040F20041C4F2000122E040F2FF31AB
:102EA000C4F20101884212DC41F60001C4F20001C3
:102EB000884218D0002112E040F60001C4F200015F
:102EC000884210D040F60041C4F2000109E044F20B
:102ED0000001C4F20101884205D040F20041C4F271
:102EE0000101884206D1816801F00701062904BF6B
:102EF00000207047016841F0010101600020704727
:102F000010B5044690F83C0001284FF0020008BFBD
:102F100010BD012284F83C2084F83D0020684FF663
:102F2000777382689A4382600A684F2A0FDC1F2AEF
:102F300022DD202A23D0302A21D0402A4DD14B68CF
:102F4000CA68194603F0E4FC206840213BE06F2A80
:102F500017DDB2F5005F20D0B2F5805F2AD0702A6D
:102F60003BD1D1E9012CCB68614603F0F9FB206825
:102F7000816841F077011AE00AB1102A2DD111467B
:102F800021E0502A18D0602A27D14B68CA68194618
:102F900003F0D0FC2068602115E0D1E9012CCB685A
:102FA000614603F0DDFB2068816841F48041816067
:102FB00000200BE0002009E04B68CA68194603F0C6
:102FC000A7FC2068502103F0D7FB0020012184F8E2
:102FD0003D10002184F83C1010BD0120F6E70000F0
:102FE00070470000B0B504460068C168026902EA93
:102FF0000105A9071DD4680731D4280747D4E8067E
:103000005CD4E80773D128067BD4680606D520680F
:103010006FF040010161204600F00CFAA80658BF8D
:10302000B0BD20686FF0200101612046FFF71CFE53
:10303000B0BD6FF002010161012121778069800735
:1030400003D02046FFF7CCFF05E0204600F092F8C1
:10305000204600F00DF9002020776807CDD52068C4
:103060006FF00401016102212177806910F4407F33
:1030700003D02046FFF7B4FF05E0204600F07AF8C1
:10308000204600F0F5F8002020772807B7D5206803
:103090006FF00801016104212177C069800703D026
:1030A0002046FFF79DFF05E0204600F063F820462C
:1030B00000F0DEF800202077E806A2D520686FF047
:1030C0001001016108212177C06910F4407F03D00D
:1030D0002046FFF785FF05E0204600F04BF820462C
:1030E00000F0C6F800202077E8073FF48CAF206896
:1030F0006FF001010161204600F090F928067FF58C
:1031000084AF20686FF0800101612046FFF7AAFDBF
:1031100068067FF583AF7AE780B586B040F200415C
:103120000068C4F20001002288420592CDE9032222
:103130000292019201D006B080BD43F630000092A9
:10314000C4F20200036843F002030360006800F069
:10315000020000900098102001900220CDE90202A8
:10316000CDE9042001F5003001A9FEF77DFF06B08E
:1031700080BD000070470000B0B5044690F83C00E8
:10318000012804BF0220B0BD0D464FEAB201012064
:10319000032984F83C0037D8DFE801F0020A122244
:1031A0002068294603F0F0FA206850F8181F0EE056
:1031B0002068294603F01AFB206850F8181F16E013
:1031C0002068294603F048FB206850F81C1F41F096
:1031D00008010160016821F00401016029690FE024
:1031E0002068294603F06CFB206850F81C1F41F44E
:1031F00000610160016821F48061016029690902B0
:103200000268114301600020002184F83C10B0BD29
:10321000002804BF0120704710B5044690F83D0017
:1032200028B9002084F83C00204600F01FF8022056
:1032300084F83D002068211D03F0E6F9012084F8A0
:10324000460084F83E0084F83F0084F8400084F88B
:10325000410084F8420084F8430084F8440084F874
:10326000450084F83D00002010BD000070470000BC
:103270007047000010B5044641B1082909D004295F
:1032800014BF04F1410004F13F0004E004F13E00EA
:1032900001E004F14000007801281CBF012010BDAE
:1032A000022041B1082909D0042914BF84F8410043
:1032B00084F83F0004E084F83E0001E084F8400018
:1032C0002068012203F03AFA206841F2FF71C4F24B
:1032D000000188420FDC40F2FF71C4F20001884215
:1032E00017DCB0F1804F49D040F20041C4F2000138
:1032F000884243D049E040F2FF32C4F201029042DA
:1033000014DC41F60003C4F20003984236D00023D7
:1033100014E040F60001C4F2000188422ED040F6CD
:103320000041C4F20001884228D02EE044F200039C
:10333000C4F20103984221D040F20043C4F20103D9
:10334000984222D1436C884243F400434364C2DD77
:10335000904207DC41F60001C4F2000188420DD022
:10336000002107E044F20001C4F20101884205D0C7
:1033700040F20041C4F20101884206D1816801F0A7
:103380000701062904BF002010BD016841F00101BA
:103390000160002010BD0000B0B5044600680022A6
:1033A0000D4603F0CBF9206840F2004240F4806102
:1033B000C4F2010291420DD1016A41F2111211428F
:1033C00008D1016A40F24442114203D1416C21F418
:1033D00000414164016A41F21112114208D1016AAF
:1033E00040F24442114203D1016821F00101016021
:1033F0000120082D09D0042D0BD0002D14BF84F816
:10340000410084F83E000020B0BD84F84000002058
:10341000B0BD84F83F000020B0BD000080B500685A
:1034200041F20041C4F20001884208BFFEF7FCFEF1
:1034300080BD00007047000070B582B0044690F86F
:103440004200202822D100294FF0010518BF002A90
:103450001DD00125002620462563666303F0C8FBC6
:10346000206B012813D10196206801680191406802
:1034700001900198206850E8030F216840F0100087
:1034800041E80302002AF5D1002500E00225284684
:1034900002B070BD80B501F0FFFD80BD7047000037
:1034A00010B50446206850E8030F216820F490709E
:1034B00041E80302002AF5D1206850E8050F216891
:1034C00020F0010041E80502002AF5D1206B012817
:1034D0000AD100BF206850E8030F216820F01000D7
:1034E00041E80302002AF5D12068406940060BD468
:1034F00000202021E08584F8421020632046FFF759
:10350000CDFF002010BD00BF206850E8050F2168E6
:1035100020F0400041E80502002AF5D1E06B68B1D7
:1035200046F6CD11C0F600010165FEF777FD0028D3
:10353000E7D0E06B016D8847002010BD00202021FE
:10354000E08584F8421020632046FFF7A7FF0020A3
:1035500010BD000070470000B0B582B0036804469B
:103560001868D9685A6900F02F05202D01F0200550
:1035700005D125B1204603F069FA02B0B0BD5FEA7B
:10358000007C1EBF02F0010E01F4907212EB0E02DD
:103590004AD1226B0840C1063DD5012A3BD100200B
:1035A0000190186801905868019001985869400688
:1035B00042D4A08DE18DE28D002A1CBF401A5FEA43
:1035C000004101D102B0B0BD216851E8031F22685B
:1035D00021F4907142E80313002BF5D1216851E8E2
:1035E000051F226821F0010142E80513002BF5D1E7
:1035F000202184F842100021216300BF216851E896
:10360000031F226821F0100142E80313002BF5D1BB
:103610000221616354E0010658D44006D2D5204609
:1036200003F008FA02B0B0BDC20718BF11F48072EF
:1036300051D1420755D45BE0E06B016849688AB21A
:10364000002ABFD0A38D9A42BCD2E185C069B0F5F3
:10365000807F30D0206850E8030F216820F480700C
:1036600041E80302002AF5D1206850E8050F2168DF
:1036700020F0010041E80502002AF5D1206850E859
:10368000050F216820F0400041E80502002AF5D12D
:10369000202084F842000020206300BF206850E80A
:1036A000030F216820F0100041E80302002AF5D141
:1036B000E06BFEF773FC02206063A08DE18D401A81
:1036C00081B22046FFF7E6FE02B0B0BD204603F00F
:1036D000A9FA02B0B0BD626C42F001026264420716
:1036E00006D5BEF1000F03D0626C42F002026264A4
:1036F000820706D5BEF1000F03D0626C42F00402CF
:103700006264BCF1000F06D55EEA050203D0626C6C
:1037100042F008026264626C002A3FF453AF084032
:10372000800602D5204603F091F920684069616C5B
:1037300000F0400001F00801401827D0204603F0B7
:1037400051F92068406940061BD500BF206850E849
:10375000050F216820F0400041E80502002AF5D15C
:10376000E06B70B146F6BD11C0F600010165FEF7D1
:1037700055FC00283FF426AFE06B016D884702B08E
:10378000B0BD2046FFF7E6FE02B0B0BD2046FFF711
:10379000E1FE0020606402B0B0BD0000002804BF5C
:1037A0000120704710B5044690F8410028B9002068
:1037B00084F84000204600F021F8242084F84100DD
:1037C0002068C16821F40051C160204603F0A2F9CD
:1037D0002068016921F490410161416921F02A01C9
:1037E0004161C16841F40051C16000202021606442
:1037F00084F8411084F84210606310BD80B586B033
:10380000006841F20042C4F2010200219042CDE979
:103810000411CDE90211019130D041F20001C4F24E
:10382000010188425BD1002043F630010090C4F2D0
:1038300002014A6942F010024A614A6902F010022C
:103840000092009A00900A6842F001020A6009683A
:1038500001F00101009100994FF4C0610191022132
:10386000CDE9021003200490072005900020C4F247
:10387000020001A9FEF7F8FB06B080BD43F6300058
:103880000091C4F20200426942F0200242614269A2
:1038900002F020020092009A0091026842F00402B5
:1038A0000260006800F0040000900098C0200190C1
:1038B0000220CDE902010320049008200590002099
:1038C000C4F2020000F5006001A9FEF7CDFB47201D
:1038D00005210022FEF752FD4720FEF74BFD06B002
:1038E00080BD000010B590F84230202B1CBF022094
:1038F00010BD00294FF0010418BF002A01D1204655
:1039000010BD0024046303F073F9204610BD0000CD
:10391000704700002DE9F041044690F8410020284E
:103920001CBF0220BDE8F0810E4600294FF00100C7
:1039300042D01746002A08BFBDE8F0814FF00008CA
:1039400021201D46C4F8448084F84100FEF766FC3F
:10395000A784E784A1680746B1F5805F0DD120698F
:10396000002814BF3046B046064606E016F8010BA4
:1039700021684860E08C0138E084E08C80B120460A
:1039800080213A462B4603F077F9B8B9002EEDD1E5
:1039900038F8020B21686FF35F2048600026E9E7E2
:1039A000204640213A462B4603F066F9202184F850
:1039B0004110002818BF0320BDE8F081202084F8C2
:1039C00041000320BDE8F08170470000FEE70000E1
:1039D00010B540F20044C4F2020420464FF4004106
:1039E0000022FEF715FC00F03BF920464FF4005191
:1039F0000022FEF70DFC00F033F920464FF40041A1
:103A00000122FEF705FC00F02BF920464FF400419F
:103A10000022FEF7FDFB00F023F910BD10B540F2C7
:103A20000044C4F2020420464FF400410022FEF795
:103A3000EFFB00F015F920464FF400510122FEF78C
:103A4000E7FB00F00DF920464FF400410122FEF79C
:103A5000DFFB00F005F920464FF400410022FEF79D
:103A6000D7FB00F0FDF810BD70B540F20044C4F281
:103A7000020420464FF400510122FEF7C9FB08263C
:103A8000002500BF20464FF400410022013EFEF712
:103A9000BFFB00F0E5F820464FF400410122FEF79D
:103AA000B7FB00F0DDF820464FF40051FEF7AAFB0B
:103AB000002818BF0120310640EA4505E2D1204622
:103AC0004FF400410022FEF7A3FBE8B270BD0000F6
:103AD00070B540F2004405460726C4F2020400BF58
:103AE00020464FF400410022FEF792FB00F0B8F8A8
:103AF000E8B2C20920464FF40051FEF789FB6D0081
:103B000000F0AEF820464FF400410122FEF780FBA2
:103B100000F0A6F83006A6F10106E1D120464FF4E8
:103B200000410022FEF774FB70BD0000B0B540F20A
:103B30000044C4F2020420464FF400510122FEF773
:103B400067FB20464FF400410122FEF761FB00F0C5
:103B500087F820464FF40051FEF754FB80B1204611
:103B60004FF4005100220025FEF752FB00F078F8D8
:103B700020464FF40051FEF745FB18B12846B0BD72
:103B80000020B0BD20464FF400510022FEF740FB5C
:103B900000F066F801252846B0BD000010B540F2DF
:103BA0000044C4F2020420464FF400410022FEF714
:103BB0002FFB00F055F820464FF400510022FEF78D
:103BC00027FB00F04DF820464FF400410122FEF79C
:103BD0001FFB00F045F820464FF400510122FEF78C
:103BE00017FB00F03DF810BDB0B540F20044C4F240
:103BF000020420464FF400410022FEF709FB00F0CA
:103C00002FF820464FF400510122FEF701FB00F08F
:103C100027F820464FF400410122FEF7F9FA00F0A0
:103C20001FF820464FF40051FEF7ECFAB0FA80F08E
:103C3000450920464FF400410022FEF7E9FA2846E4
:103C4000B0BD000081B00A200090009830B100BFE4
:103C500000980138009000980028F9D101B0704711
:103C600081B00A200090009830B100BF0098013860
:103C7000009000980028F9D101B0704770B594B059
:103C80000446642005F05EFB002C00F0F38040F257
:103C90006C05C2F20005286841F60C16C2F2000657
:103CA000346048B94DF2FC42C0F6000208204FF4DF
:103CB000007105F0D3FB286041F24E55C2F20005B9
:103CC0003068AC1C214640F2FD12FFF70BFE306855
:103CD000FFF7E6FB3068214640F2FD12FFF7ACFB30
:103CE0000020A5F8000264A009F01AFA69A04FF4B8
:103CF000FA7101F04FFD68A009F012FA6DA04FF4BF
:103D00007A7101F047FD95F80002002800F0B280BA
:103D100042F69230C0F6010009F002FA42F6BA20EB
:103D2000C0F601004FF4FA7101F034FD42F6133091
:103D3000C0F6010009F0F4F960A04FF47A7101F0C7
:103D400029FD61A009F0ECF963A04FF4FA7101F0CC
:103D500021FD65A009F0E4F966A04FF4FA7101F0C5
:103D600019FD67A009F0DCF96AA04FF4FA7101F0BF
:103D700011FD42F64A3105F20220C0F6010115227A
:103D8000FCF7D3FAF0B142F69F30C0F6010009F01B
:103D9000C7F9012042F6A52142F64A3242F65F33C6
:103DA0006C4685F80102C0F60101C0F60102C0F6BA
:103DB0000103204607F0FAFB204642F2107101F0A1
:103DC000E9FC02E0022085F8010295F801020228D0
:103DD00050D342F66830C0F6010009F0A1F942F66E
:103DE000DD20C0F601004FF4FA7101F0D3FC42F679
:103DF000AC30C0F6010009F093F942F6E820C0F6B5
:103E000001004FF4FA7101F0C5FC42F62730C0F60C
:103E1000010009F085F942F6F72142F63C326C4682
:103E2000C0F60101C0F60102204641F6852307F0E5
:103E3000BDFB20464FF4FA6101F0ACFC42F6853040
:103E4000C0F6010009F06CF942F6C120C0F601008D
:103E50004FF4FA7101F09EFC42F67C30C0F601008E
:103E600009F05EF942F6D020C0F601004FF4FA7175
:103E700001F090FC14B070BDCDCBB3F6455350307B
:103E800031C4A3BFE9CDB8B4ABC4A3CABD2E2E2E96
:103E9000000000002B2B2B00B2E2CAD44553503057
:103EA00031C4A3BFE9CAC7B7F1B4E6D4DA2E2E2EC7
:103EB0000000000041540D0A0000000041542B474F
:103EC0004D520D0A00000000BFAAC6F441502B530A
:103ED0005441C4A3CABD000041542B43574D4F4425
:103EE000453D330D0A000000B2E9D1AF53534944B8
:103EF0000000000041542B43575341503F0D0A002E
:103F0000B2E9D1AFB5B1C7B0C1ACBDD3B5C4C8C8B3
:103F1000B5E3000041542B43574A41503F0D0A007E
:103F20002DE9F04383B040F27806C2F200068E46D7
:103F3000B6F90210DDF82C90DDF82880A1EB0E0711
:103F40009C46012F06DBACEB0703012B2FDB07FBA5
:103F5000089901E063467146B6F906700CEB0E0550
:103F6000FF432F44012F02DBDB1B012B1FDBB6F9C4
:103F700004401518B6F90070E6432E44002EC8BF61
:103F8000921B87420BDD3F1A27F00706D21B09EB75
:103F9000E709304407F00706012A03DA07E00026A4
:103FA000012A04DBCDE90089029600F04FF803B046
:103FB000BDE8F08380B582B040F2780CC2F2000C0C
:103FC000BCF902308B4219DCBCF906308B4215DBA0
:103FD000BCF90030BCF904E08342C8BF18469645DE
:103FE000B8BF7246824209DB9CF81CC089B280B21D
:103FF00092B20B46CDF800C001F084F902B080BD4A
:1040000080B582B040F2780CC2F2000CBCF90030EE
:10401000834219DCBCF90430834215DBBCF9023061
:10402000BCF906E08B42C8BF19469645B8BF724638
:104030008A4209DB9CF81CC080B289B293B2024666
:10404000CDF800C001F05EF902B080BD2DE9F04767
:1040500082B0012B15DBDDF83080DDE90AA51C46B6
:1040600091460E46074600BF384631462A4643462B
:10407000CDF80090FCF7C6FE5544013C06F1010660
:10408000F2D102B0BDE8F08710B5A0F1040C4FF0FA
:10409000000E00BF6FF00303604600BF50F8042F0E
:1040A000CC1804330C2B6260F8D10EF1010EBEF176
:1040B000040F0CF1100C01F1100108BF10BDE9E76D
:1040C0002DE9F041A1F1040CA2F1040E4FF000081B
:1040D00000EB08110A1D01F1080401F10C0504268A
:1040E0007746634691ED000A93ED011A93ED052A98
:1040F00020EE010A92ED001A93ED093A21EE021A20
:1041000094ED002A93ED0D4A30EE010A22EE031AD7
:1041100095ED002A30EE010A22EE041A30EE010A73
:10412000043387ED010A0437013EDBD108F10108B1
:10413000B8F1040F0EF1100E08BFBDE8F081C7E71B
:104140002DE9F04381B02DED0A8B8CB00DF11E00EE
:104150000DF11D0700900DF1260008A903AA0BAB75
:10416000019703F0C9FABDF81E00C00540F1D180E7
:104170009DED030A9DED041A9DED052A9DED063A7D
:104180009FED814AB8EEC00A40F22C08B8EEC11A81
:1041900041F6806920EE040AC2F2000821EE041AFA
:1041A000C2F20009B8EEC22AB8EEC33A88ED000A9E
:1041B00089ED001A22EE042A23EE043A31EE011AA8
:1041C00030EE000A21EE031A20EE020A41F6846660
:1041D00041F6886730EE410AC2F20006C2F20007DB
:1041E00010EE100A86ED002A87ED003AFCF76CFA13
:1041F00041EC100B07F00CFA51EC100B9FED600B2B
:1042000054EC105B2A462346FCF75FF9FCF76FFA83
:1042100041F24051C2F20001086096ED009A98ED1B
:10422000001A97ED000A99ED00BA39EE09AA31EEAD
:10423000011A2AEE000A21EE0B1A30EE010A10EEE6
:10424000100AFCF741FAB8EE000A2BEE000A2BEE3A
:10425000000A29EE0A1A30EE410AB7EE001A30EED3
:10426000010A41EC180B10EE100AFCF72DFA41EC94
:10427000110BB0EE480AF0EE680A07F0E5FC51ECCD
:10428000100B2A462346FCF720F9FCF730FA41F2DE
:104290004451C2F20001086099ED009A96ED00AA1F
:1042A00098ED00BA97ED00CA29EE0A0A2BEE0C1A17
:1042B00030EE010A30EE000A10EE100AFCF704FAA4
:1042C0002BEE0B0A29EE091A31EE000A2AEE0A1A21
:1042D00030EE410A2CEE0C1A30EE410A41EC180B7C
:1042E00010EE100AFCF7F0F941EC110BB0EE480AA1
:1042F000F0EE680A07F0A8FC51EC100B2A462346A2
:10430000FCF7E3F8FCF7F3F941F24851C2F200017F
:104310000860BDF81E0010F0700F14D0BDF8261014
:1043200041F28472C2F200021180BDF8281041F2FD
:104330008672C2F200021180BDF82A1041F2887222
:10434000C2F200021180000714D5BDF8200041F22E
:104350001051C2F200010880BDF8220041F2125152
:10436000C2F200010880BDF8240041F21451C2F2EB
:10437000000108800CB0BDEC0A8B01B0BDE8F083F1
:104380006666666666A64C400000803010B504F094
:10439000BBF900281CBF002010BD43A008F0C0FEE0
:1043A000782004F03FFF10B1002448A077E042F6E7
:1043B0007D10C0F6010008F0B3FE782004F0CAF8C2
:1043C00010B100244BA06AE042F65A10C0F601007A
:1043D00008F0A6FE322004F0DFFE28B142F69C1061
:1043E0000024C0F601005AE042F6CE00C0F60100FB
:1043F00008F096FE03F072F928B142F6BD100024D1
:10440000C0F601004BE042F67B00C0F6010008F068
:1044100087FE04F055F803F035FB28B142F678200A
:104420000024C0F601003AE042F63610C0F6010062
:1044300008F076FE40F2731003F028F828B142F637
:10444000F6100024C0F6010029E042F6AB00C0F6E9
:10445000010008F065FE322003F07CFA28B142F634
:1044600022200024C0F6010019E042F6F200C0F656
:10447000010008F055FE05F053FE012004F09AFDFE
:104480000146B0FA80F0440942F64D2042F614127B
:10449000C0F60100C0F60102002908BF104608F06E
:1044A0003FFE204610BD00BF6D707520696E6974B7
:1044B00069616C697A6174696F6E20636F6D706C8D
:1044C0006574652E2E2E2E2E2E0000006D70755FE9
:1044D0007365745F73656E736F7220636F6D6520B3
:1044E0006163726F7373206572726F72202E2E2E4D
:1044F0002E2E2E006D70755F636F6E666967757224
:10450000655F6669666F20636F6D65206163726FBA
:104510007373206572726F72202E2E2E2E2E2E0037
:1045200080B546F295104EF6C032C0F60000C0F6D7
:104530000002002105F02AF840F2A401C2F20001B5
:10454000086045F6AD504EF69C32C0F60000C0F64D
:104550000002002105F01AF840F2A001C2F20001A9
:10456000086046F27D304EF6E432C0F60000C0F638
:104570000002002105F00AF840F2B041C2F2000149
:10458000086045F669504DF21452C0F60000C0F6BE
:104590000002002104F0FAFF40F27001C2F20001B3
:1045A000086045F681004DF2D842C0F60000C0F622
:1045B0000002002104F0EAFF40F26801C2F20001AB
:1045C000086080BD2DE9F04F87B0002743F630002A
:1045D0000697CDE90477CDE902770197C4F202008E
:1045E000016841F2000641F0100101600168C4F267
:1045F000020601F010010191019901970168A6F5E9
:10460000006941F0800101600168002201F0800131
:1046100001910199019701684FF4716B41F001011B
:104620000160016801F001010191019901970168A0
:1046300041F004010160016801F004010191019958
:104640000197016841F00201016000684FF4716157
:1046500000F00200019001984846FDF7D9FD304670
:104660004FF47F4101224FF0010AFDF7D1FDA6F57D
:10467000406528464AF2C0410022FDF7C9FDA6F573
:10468000805840464FF419410022FDF7C1FD3046E5
:1046900001210022FDF7BCFD1E2002A902AC81E829
:1046A000810430462146FDF7DFFC6020CDE902079A
:1046B0000220049030462146FDF7D6FC48462146AC
:1046C000CDE902BACDE90477FDF7CEFC4FF60170D3
:1046D000CDE9020A30462146CDE90477FDF7C4FC56
:1046E0004FF48060CDE9020A28462146CDE90477DF
:1046F000FDF7BAFC4AF2C00002901120CDE9030791
:10470000284621460597FDF7AFFC4FF41940CDE947
:10471000020A40462146CDE90477FDF7A5FC07B023
:10472000BDE8F08F80B541F28C7043F20001C2F217
:104730000000C4F201014FF48272002380E80E00F1
:1047400000F114014FF4007C4FF0100E81E8085086
:104750000A21C0E90333C0E90833C0E90A31FEF792
:10476000F5F8002818BFFDF7D9F980BD10B58EB057
:1047700041F2E47040F200420021C2F20000C4F2B3
:104780000002532340F2E7340D91CDE90B11CDE93E
:104790000911CDE90711CDE90511CDE90311CDE9E5
:1047A0000111C0E90023C0E9021401618161FEF733
:1047B000B9FA002818BFFDF7B1F94FF480500A90FC
:1047C00041F2E470C2F200000AA9FEF799FB00284A
:1047D00018BFFDF7A3F941F2E470C2F20000FEF742
:1047E00017FD002818BFFDF799F941F2E470002485
:1047F000C2F2000008A9CDE90844FEF737FA002804
:1048000018BFFDF78BF9602001904FF4FA70CDE9E5
:10481000020441F2E470C2F2000001A900220594F2
:10482000FEF7AAFC002818BFFDF778F941F2E47002
:10483000C2F20000FEF770FC0EB010BD80B541F66C
:10484000740041F20001C2F20000C4F20101002331
:104850004FF00C0C4FF4E13280E80E00C0E9033356
:10486000C0E905C3C361FEF799FF002818BFFDF733
:1048700055F980BD80B541F6BC0041F20041C2F25D
:104880000000C4F2010100234FF00C0C4FF4E132A0
:1048900080E80E00C0E90333C0E905C3C361FEF739
:1048A0007DFF002818BFFDF739F980BDFEE7000045
:1048B000FEE7000000F0070080F00703042B28BF8C
:1048C00004234FF0FF3C03380CFA03F338BF0020F9
:1048D000994381400CFA00F022EA00000843704737
:1048E00010B540F20044C4F20204204680210122A7
:1048F000FDF78EFCFFF7A6F9204640210122FDF7C7
:1049000087FCFFF79FF9204640210022FDF780FC3D
:1049100010BD000070B540F20045C4F20205044627
:104920002846402100220026FDF772FCE0B2C209B1
:1049300028468021FDF76CFC6400FFF783F92846C8
:1049400040210122FDF764FCFFF77CF92846402155
:104950000022FDF75DFCFFF775F9072E06F1010651
:10496000E4D370BD10B540F20044C4F20204204606
:1049700080210122FDF74CFC204640210122FDF759
:1049800047FCFFF75FF9204680210022FDF740FC3D
:10499000FFF758F9204640210022FDF739FC10BDF1
:1049A00010B540F20044C4F2020420464021002227
:1049B000FDF72EFC204680210022FDF729FCFFF7A1
:1049C00041F9204640210122FDF722FC20468021AA
:1049D0000122FDF71DFCFFF735F910BD00000000B6
:1049E000EFF30980BFF36F8F154B1A681EF0100F9D
:1049F00008BF20ED108A20E9F04F10602DE9090072
:104A00004FF0500080F31188BFF34F8FBFF36F8FCB
:104A100005F07CFE4FF0000080F31188BDE809002E
:104A200019680868B0E8F04F1EF0100F08BFB0EC2E
:104A3000108A80F30988BFF36F8F704700BF00BFF3
:104A4000081A00209FED152AB5EE401A20EE020A42
:104A500031EE023A9FED124AF1EE10FA08BFB0EEC5
:104A6000443A80EE030A20EE821A81EE031A02EE27
:104A7000101AB8EEC22A30EE020ABDEEC00A10EEDD
:104A8000101A00EE102AB8EEC00A31EE000ABDEE90
:104A9000C00A10EE102AC0E900127047000000445E
:104AA00000400044F0B581B000287CD00546008865
:104AB000002878D0AC1C3DA0214606F067FD3EA141
:104AC0002046FBF703FC41F24E56A042C2F200061C
:104AD00024BF012086F8000296F80002002862D068
:104AE00036A120460422FBF72DFC48B996F80102B6
:104AF000012805D1022086F8010232A008F010FB3F
:104B000034A120460E22FBF71DFC28B9012086F8AF
:104B1000010234A008F004FB36A120460D22FBF769
:104B200011FC96F80172002808BF022F24D035A18D
:104B300020461122FBF706FC022F08BF00281BD0DD
:104B400035A120460722FBF7FDFBE8B134A1204642
:104B50000722FBF7F7FB30BB0A3528462221FBF77B
:104B6000D3FBA8421FD9001BA0F1080206F20220C5
:104B70002946FBF7BDFB16E0032086F801022AA0B8
:104B800008F0CEFA01B0F0BD0A3528462221FBF725
:104B9000BBFBA84207D9001BA0F1080206F21620B1
:104BA0002946FBF7A5FB01B0F0BD00BF45535030CF
:104BB000312072783A2573004F4B00000D0A4F4B9D
:104BC00000000000455350303120636F6E6E3A3262
:104BD000000000005749464920434F4E4E4543547C
:104BE00045440000455350303120636F6E6E3A31BA
:104BF00000000000434F4E4E4543540D0A0D0A4F2E
:104C00004B000000414C524541445920434F4E4E09
:104C100045435445440000002B43575341503A004C
:104C20002B43574A41503A00455350303120636F6F
:104C30006E6E3A33000000002DE9F04F81B02DED8B
:104C4000068BAAB00DF16808404616460D46B0EE38
:104C5000418AB0EE609AB0EE40AA05F0F7FA4046FD
:104C60006FF003016FF003026FF0030301F074FEB5
:104C7000B1EE000A4046F0EE400AB0EE401A00F0F5
:104C8000FDFC4046B0EE4A0AF0EE490AB0EE481A82
:104C900000F0E2F84046002100220023002401F049
:104CA0005BFE4DF27840C0F6000008380FFA85FA36
:104CB00036B20DF120090AAF00F1080191EC030AA8
:104CC00000F10C05404605F06FFD4846514632465E
:104CD000FFF7B8FEDDE9081207EBC40047F834100F
:104CE00001F07F01426047F8341002F03F010134C7
:104CF0004160082C2846DFD10A9C0B9DDDE90C8918
:104D00002046294642464B4605940495CDF80C8032
:104D1000CDF80890FDF78EF8DDE90E6720462946AC
:104D200032463B4601960097FDF784F8109C119D92
:104D30002046294642464B4607940695FDF77AF8E9
:104D40002046294632463B46FDF774F80DF14809E6
:104D500099E8C0033946304642464B46FDF76AF8AB
:104D6000DDE916AB3046394652465B46FDF762F840
:104D7000DDE918454246204629464B46FDF75AF8DC
:104D80002046294652465B46FDF754F8DDE90410FB
:104D900032463B46FDF74EF8DDE9021042464B46EF
:104DA000FDF748F8DDE9001052465B46FDF742F892
:104DB000DDE9061022462B46FDF73CF82AB0BDEC93
:104DC000068B01B0BDE8F08F70B541F20004C4F26B
:104DD0000204204601210122FDF71AFA322002F0D6
:104DE0001DFB2046012100220025FDF711FA4FF49A
:104DF000FA7002F013FB204601210122FDF708FAA8
:104E0000282002F00BFB20460121FDF7FBF9A8B199
:104E1000002000BF0646012002F000FB20460121D1
:104E2000FDF7F0F9B6F5F97F03D8002806F1010087
:104E3000F0D10025B6F5F97F88BF01254FF4FA704F
:104E400002F0ECFA204601210122FDF7E1F92846A3
:104E500070BD0000000000002DE9F0472DED048B2F
:104E6000D0B0804610EE100AB0EE418AB0EE609AE3
:104E7000FBF72AFC9FED840B55EC107B3A462B4642
:104E8000FBF723FB9FED820B54EC106B324623465D
:104E9000FBF78DFBFBF72BFC824619EE100AFBF7A4
:104EA00013FC3A462B46FBF710FB32462346FBF732
:104EB0007EFBFBF71CFC814618EE100AFBF704FC96
:104EC0003A462B46FBF701FB32462346FBF76FFBC6
:104ED000FBF70DFC05464FF07E5450462094FBF73F
:104EE000F3FB41EC180B0026B0EE480AF0EE680A1E
:104EF000CDE92166CDE9236606F0A6FF51EC100B43
:104F0000FBF7F5FBB0EE480AF0EE680A259006F0D4
:104F1000FFFF51EC100BFBF7EAFBB0EE480A80F004
:104F20000040F0EE680ACDE92606289606F0F0FF6C
:104F300051EC100BFBF7DBFBB0EE480AF0EE680A11
:104F4000299006F081FF51EC100BFBF7D0FBCDE967
:104F50002A064846CDE92C66CDE92E64FBF7B4FB62
:104F600041EC180BB0EE480AF0EE680A06F06CFF50
:104F700051EC100BFBF7BBFBB0EE480AF0EE680AF1
:104F8000CDE9100606F0C4FF51EC100BFBF7AFFBA8
:104F9000B0EE480AF0EE680ACDE91206CDE91464D5
:104FA000CDE9166606F0B4FF51EC100BFBF79FFB42
:104FB000B0EE480A80F00040F0EE680ACDE918062D
:104FC00006F042FF51EC100BFBF791FBCDE91A06FE
:104FD0002846CDE91C66CDE91E64FBF775FB41EC64
:104FE000180BB0EE480AF0EE680A06F02DFF51ECFF
:104FF000100BFBF77CFBB0EE480AF0EE680A00905D
:1050000006F086FF51EC100BFBF771FBB0EE480A7F
:1050100080F00040F0EE680ACDE90106039606F044
:1050200077FF51EC100BFBF762FBB0EE480AF0EE95
:10503000680A049006F008FF51EC100BFBF757FBD1
:10504000CDE909640F9440ACCDE9050620A940469E
:105050002246CDE90766CDE90B66CDE90D66FFF77F
:105060002FF830AD10A920462A46FFF729F86946E7
:1050700028464246FFF724F850B0BDEC048BBDE84B
:10508000F08700BF00BF00BF4AD8124DFB21094086
:10509000000000000080664070B541F60C16C2F2B8
:1050A00000063268824218BF70BD41F24E55044678
:1050B000C2F2000569B168180022827040F26C00EB
:1050C000C2F200000068298029460022002304F073
:1050D00015FA002084F840003068A91C40F2FD1247
:1050E000FEF7AAF970BD000080B582B08DF8070008
:1050F00041F28C704FF47A7CC2F200000DF107018E
:105100000DF106020123CDF800C0FDF7B3FC9DF8B8
:10511000060002B080BD000041F28C71C2F20001B5
:1051200009684FF6C7730A6822F040020A600A68ED
:105130001A400A600A6810430860086840F040009E
:105140000860704770B582B00D46164602210122F4
:105150002B460446009600F039F828B1606D03250F
:1051600040F0200060652DE040F20400C2F2000033
:10517000006849F68171C1F25E61A0FB0101480D32
:105180004FF47A71484301906068B0F5827F0FD187
:105190002046802100222B460096002500F016F8BC
:1051A00080B1606D032540F0200060650AE000BF1B
:1051B000019830B10198013801902068806800069C
:1051C000F6D40025284602B070BD00002DE9F04756
:1051D00082B00A9C984615460E468146FDF71EF899
:1051E000201A00EB0804FDF719F840F20401C2F29E
:1051F00000010968C1F3CB3161430191D9F8001076
:1052000089683140891BB1FA81F14909A94203D16A
:10521000002002B0BDE8F087824608F1010709E0EE
:10522000D9F8000080683040801BB0FA80F0400957
:10523000A842EDD0002FF3D0FCF7F0FFA0EB0A005E
:10524000A04207D201980199002808BF0446481ED1
:105250000190E5E7D9E900014268B1F5827F22F0CB
:10526000E00242600BD1D9F80810B1F5004F02D02E
:10527000B1F5806F03D1016821F040010160D9F8D8
:105280002810B1F5005F07D1016821F400510160D9
:10529000016841F400510160012089F851000020AB
:1052A00089F85000032002B0BDE8F0872DE9F043F3
:1052B00081B07F2823D889463F2920D8044610444E
:1052C000DDF820807F2888BFC4F1800203EB09004D
:1052D00011193F2888BFC9F1400300208EB29FB248
:1052E000002500BF484481B2204632460B46CDF827
:1052F000008000F007F80135E8B28742F2D201B031
:10530000BDE8F0832DE9F04F85B005467F280C46B7
:105310004FF07F0128BF0D467F2A38BF11463F2C32
:105320004FF03F0A28BF54463F2B38BF9A46681AB1
:1053300038BF481BBAEB04034FF0FF324FF0FF3683
:105340000E9F88BF0126039698BFA4EB0A038D42E7
:1053500038BF0122049202043CD006B20FFA83FB4C
:105360005E45CBF100000296D8BF06B2BBF1000F3C
:1053700045D00191284621463A4600F057F80E9A4A
:10538000544502D1019885424CD006EBD6704FEAC5
:1053900060080298C0F100090FFA88F004994845A6
:1053A000C8BF0D4403995845B8BF0C440299AFB229
:1053B000A6B2B8BF8844484538463146C8BFA8EBB6
:1053C0000B0800F033F80E9A5645E5D10198874254
:1053D000E2D127E0A245564638BF2646A94238BF4B
:1053E0000D46A24538BF5446A1B228463A4600F0C1
:1053F0001DF801340E9F20B2B042F5DD12E0A24547
:105400000E4638BF5446A9423CBF2E460D4600BF4B
:10541000A8B221463A4600F009F801350E9F28B29D
:10542000B042F5DD05B0BDE8F08F00007F2898BFE1
:105430003F2900D97047B0B540F2A803C2F200037B
:105440001B7801F0070E002B6FF0700303EA0111C7
:1054500040F2AC05B2FA82FC0844C2F2000518BF63
:105460004FEA5C124FF0010C2B5C0CFA0EF123EAB0
:105470000104012A08BF43EA01042C54BDE8B040EE
:105480007047000080B50246002840F2AC00C2F22E
:1054900000004FF4806118BFFF22FAF705FF80BDBE
:1054A000B0B540F2AC040025C2F20004A5F15000F2
:1054B000C0B2002100F014F80120002100F010F823
:1054C0001020002100F00CF820468021402200F03E
:1054D0001FF80135082D04F18004E7D1B0BD0000AC
:1054E000B0B50C460546FFF73DFA7820FFF712FAF3
:1054F000FFF7F6F92046FFF70DFAFFF7F1F9284616
:10550000FFF708FAFFF7ECF9FFF74AFAB0BD000021
:1055100070B516460C460546FFF724FA7820FFF7CB
:10552000F9F9FFF7DDF93046FFF7F4F9FFF7D8F99D
:1055300044B1013D15F8010FFFF7ECF9FFF7D0F981
:10554000013CF7D1FFF72CFA70BD000080B5642054
:10555000FCF776FDAE200021FFF7C2FF20200021DE
:10556000FFF7BEFF10200021FFF7BAFFB020002197
:10557000FFF7B6FFC8200021FFF7B2FF002000218F
:10558000FFF7AEFF10200021FFF7AAFF4020002107
:10559000FFF7A6FF81200021FFF7A2FFFF200021D7
:1055A000FFF79EFFA0200021FFF79AFFC0200021F7
:1055B000FFF796FFA6200021FFF792FFA820002109
:1055C000FFF78EFF3F200021FFF78AFFA420002174
:1055D000FFF786FFD3200021FFF782FF0020002184
:1055E000FFF77EFFD5200021FFF77AFFF020002192
:1055F000FFF776FFD9200021FFF772FF222000215C
:10560000FFF76EFFDA200021FFF76AFF122000216A
:10561000FFF766FFDB200021FFF762FF202000215B
:10562000FFF75EFF8D200021FFF75AFF14200021B5
:10563000FFF756FFAF200021FFF752FF0020FFF7D2
:1056400021FFFFF72DFF80BD0000000000000000DB
:10565000074B19680868B0E8F04F80F30988BFF37A
:105660006F8F4FF0000080F31188704700BF00BFBC
:10567000081A002080B501F043FE80BDB0B5A0B08F
:1056800004460020CDE90100CDE90300CDE9060084
:10569000CDE90800CDE90B00CDE90D004FF07E50BB
:1056A00010AD0F90694620462A468DED000ACDEDDB
:1056B000050A8DED0A1AFEF703FD28462146FEF77E
:1056C000E3FC20B0B0BD0000B0B541F20004C4F26C
:1056D000020420460221FCF795FDB0FA80F045094E
:1056E00020460421FCF78EFD002820464FF00801DB
:1056F00008BF0235FCF786FD002820464FF0100158
:1057000008BF0435FCF77EFD002820464FF020013D
:1057100008BF0835FCF776FD012820464FF0400110
:1057200008BF45F01005FCF76DFD40F2AD4CC2F22C
:10573000000C012808BF45F0200541F278729CF862
:105740000010C2F200022B06157015D0EBB28B428E
:1057500012D140F2AC4EC2F2000E9EF80020501C56
:10576000C4B2022C2A4618BF00228B428EF80000D9
:105770000ED0022C09D10BE0E8B240F2AC43C2F2E9
:105780000003002288421A7002D000228CF80050D8
:10579000D0B2B0BD002808BF704770B5054641F6CD
:1057A0000C10C2F20000066828460C46FAF7B6FD57
:1057B00082B2304629464FF6FF73FEF7ABF820461B
:1057C00003F0C0FDBDE8704070470000002808BF2E
:1057D0007047B0B5044641F60C10C2F200000568EF
:1057E0002046FAF79BFD82B2284621464FF6FF730A
:1057F000FEF790F8BDE8B0407047000070B541F288
:1058000000040126C4F20204054626EA00022046EE
:105810004FF48071FCF7FCFC26EA550220464FF459
:105820000071FCF7F5FC26EA950220464FF48061F2
:10583000FCF7EEFC26EAD50220464FF40061FCF7A7
:10584000E7FC26EA151220464FF48051FCF7E0FCF5
:1058500026EA551220464FF40051FCF7D9FC26EAFF
:10586000951220464FF48041FCF7D2FCE843C0B2C9
:10587000C20920464FF40041FCF7CAFC70BD00008D
:10588000B2B0642003F05EFD02F0CAFA01F074FACF
:105890002DA80021142201F083FA2D9840F20C0863
:1058A0005A28C2F200082CD82E98092829D82F98F7
:1058B0003C2826D8309842F2AC616438884220D81F
:1058C00030989FEDC71A00EE100AB8EEC00A80EEBD
:1058D000010AC8F80C002DAE319870CEC8F810003F
:1058E00088E8700010EE100AFAF7EEFE41EC100B9B
:1058F0000FF2244021462A4633468DED000B05F079
:1059000045FEFEF743FDC0B220B1B0FA80F04FEA89
:10591000501912E0002400BF4FF4FA7003F012FD9A
:10592000FEF734FDC1B2B1FA81F1012C4FEA5119F1
:1059300003D8000604F10104EED041F6BC00C2F227
:105940000000FEF79BF9002041F24C5A41F68C64AE
:105950009FEDA48A139000200026C2F2000AC2F232
:10596000000412900020CDE90E9002E0012003F027
:10597000E9FC03F0F7FC06F57A71884246D303F0A0
:10598000F1FC064602F05CFAB4EE480AF1EE10FAB9
:105990003CDA41F2245384ED000AC2F20003186895
:1059A0004F2809DC421C21681A6049F61852C2F2DD
:1059B000000242F820100CE049F61855C2F200052A
:1059C000291D28464FF49E72FAF75CFC2068C5F842
:1059D0003C0194ED000A98ED001AB8EEC11AB4EE3D
:1059E000410AF1EE10FA11DBD8F8080070B1206816
:1059F000FAF76AFE0246D0A00B4605F0C7FD41F655
:105A00009060C2F200000121017000BFB9F1000FE7
:105A100040F0ED8003F0A6FC139932318842C0F0CB
:105A2000E68003F09FFC1390FEF78AFB41F21C53C3
:105A3000C2F2000318684F280DDC41F24051C2F257
:105A40000001421C09681A6049F69822C2F200025D
:105A500042F8201010E049F69825C2F20005291DF1
:105A600028464FF49E72FAF70DFC41F24050C2F204
:105A700000000068C5F83C0141F22053C2F2000367
:105A800018684F280DDC41F24451C2F20001421C5B
:105A900009681A6049F6D832C2F2000242F82010B2
:105AA00010E049F6D835C2F20005291D28464FF40A
:105AB0009E72FAF7E7FB41F24450C2F20000006820
:105AC000C5F83C0141F22853C2F200031868B346FE
:105AD0004F280DDC41F24851C2F20001421C096816
